{
  "contractName": "Flash",
  "abi": [
    {
      "inputs": [
        {
          "internalType": "contract ILendingPoolAddressesProvider",
          "name": "_aaveProvider",
          "type": "address"
        }
      ],
      "stateMutability": "nonpayable",
      "type": "constructor"
    },
    {
      "inputs": [],
      "name": "ADDRESSES_PROVIDER",
      "outputs": [
        {
          "internalType": "contract ILendingPoolAddressesProvider",
          "name": "",
          "type": "address"
        }
      ],
      "stateMutability": "view",
      "type": "function",
      "constant": true
    },
    {
      "inputs": [],
      "name": "LENDING_POOL",
      "outputs": [
        {
          "internalType": "contract ILendingPool",
          "name": "",
          "type": "address"
        }
      ],
      "stateMutability": "view",
      "type": "function",
      "constant": true
    },
    {
      "inputs": [
        {
          "internalType": "uint256",
          "name": "",
          "type": "uint256"
        }
      ],
      "name": "amountToTrade",
      "outputs": [
        {
          "internalType": "uint256",
          "name": "",
          "type": "uint256"
        }
      ],
      "stateMutability": "view",
      "type": "function",
      "constant": true
    },
    {
      "inputs": [],
      "name": "daiAmount",
      "outputs": [
        {
          "internalType": "uint256",
          "name": "",
          "type": "uint256"
        }
      ],
      "stateMutability": "view",
      "type": "function",
      "constant": true
    },
    {
      "inputs": [],
      "name": "deadline",
      "outputs": [
        {
          "internalType": "uint256",
          "name": "",
          "type": "uint256"
        }
      ],
      "stateMutability": "view",
      "type": "function",
      "constant": true
    },
    {
      "inputs": [],
      "name": "estimatedTokens",
      "outputs": [
        {
          "internalType": "uint256",
          "name": "",
          "type": "uint256"
        }
      ],
      "stateMutability": "view",
      "type": "function",
      "constant": true
    },
    {
      "inputs": [],
      "name": "ethAmount",
      "outputs": [
        {
          "internalType": "uint256",
          "name": "",
          "type": "uint256"
        }
      ],
      "stateMutability": "view",
      "type": "function",
      "constant": true
    },
    {
      "inputs": [],
      "name": "ethBalance",
      "outputs": [
        {
          "internalType": "uint256",
          "name": "",
          "type": "uint256"
        }
      ],
      "stateMutability": "view",
      "type": "function",
      "constant": true
    },
    {
      "inputs": [],
      "name": "flashLoanedAmount",
      "outputs": [
        {
          "internalType": "uint256",
          "name": "",
          "type": "uint256"
        }
      ],
      "stateMutability": "view",
      "type": "function",
      "constant": true
    },
    {
      "inputs": [],
      "name": "sushiswapRouter",
      "outputs": [
        {
          "internalType": "contract IUniswapV2Router02",
          "name": "",
          "type": "address"
        }
      ],
      "stateMutability": "view",
      "type": "function",
      "constant": true
    },
    {
      "inputs": [],
      "name": "tokensOut",
      "outputs": [
        {
          "internalType": "uint256",
          "name": "",
          "type": "uint256"
        }
      ],
      "stateMutability": "view",
      "type": "function",
      "constant": true
    },
    {
      "inputs": [],
      "name": "uniswapRouter",
      "outputs": [
        {
          "internalType": "contract IUniswapV2Router02",
          "name": "",
          "type": "address"
        }
      ],
      "stateMutability": "view",
      "type": "function",
      "constant": true
    },
    {
      "stateMutability": "payable",
      "type": "receive",
      "payable": true
    },
    {
      "inputs": [
        {
          "internalType": "address[]",
          "name": "assets",
          "type": "address[]"
        },
        {
          "internalType": "uint256[]",
          "name": "amounts",
          "type": "uint256[]"
        },
        {
          "internalType": "uint256[]",
          "name": "premiums",
          "type": "uint256[]"
        },
        {
          "internalType": "address",
          "name": "initiator",
          "type": "address"
        },
        {
          "internalType": "bytes",
          "name": "params",
          "type": "bytes"
        }
      ],
      "name": "executeOperation",
      "outputs": [
        {
          "internalType": "bool",
          "name": "",
          "type": "bool"
        }
      ],
      "stateMutability": "nonpayable",
      "type": "function"
    },
    {
      "inputs": [
        {
          "internalType": "address[]",
          "name": "assets",
          "type": "address[]"
        },
        {
          "internalType": "uint256[]",
          "name": "amounts",
          "type": "uint256[]"
        }
      ],
      "name": "startFlashLoan",
      "outputs": [],
      "stateMutability": "nonpayable",
      "type": "function"
    },
    {
      "inputs": [],
      "name": "swapTokens",
      "outputs": [],
      "stateMutability": "nonpayable",
      "type": "function"
    },
    {
      "inputs": [
        {
          "internalType": "uint256[]",
          "name": "_amounts",
          "type": "uint256[]"
        }
      ],
      "name": "setAmountsToSwap",
      "outputs": [],
      "stateMutability": "nonpayable",
      "type": "function"
    },
    {
      "inputs": [],
      "name": "approvals",
      "outputs": [],
      "stateMutability": "nonpayable",
      "type": "function"
    },
    {
      "inputs": [
        {
          "internalType": "uint256",
          "name": "_tokenAmount",
          "type": "uint256"
        },
        {
          "internalType": "address",
          "name": "ERC20Token",
          "type": "address"
        }
      ],
      "name": "getEstimatedETHForToken",
      "outputs": [
        {
          "internalType": "uint256[]",
          "name": "",
          "type": "uint256[]"
        }
      ],
      "stateMutability": "view",
      "type": "function",
      "constant": true
    },
    {
      "inputs": [
        {
          "internalType": "uint256",
          "name": "_tokenAmount",
          "type": "uint256"
        },
        {
          "internalType": "address",
          "name": "ERC20Token",
          "type": "address"
        }
      ],
      "name": "getEstimatedTokensForETH",
      "outputs": [
        {
          "internalType": "uint256[]",
          "name": "",
          "type": "uint256[]"
        }
      ],
      "stateMutability": "view",
      "type": "function",
      "constant": true
    }
  ],
  "bytecode": "0x60c0604052736b175474e89094c44da98b954eedeac495271d0f600160006101000a81548173ffffffffffffffffffffffffffffffffffffffff021916908373ffffffffffffffffffffffffffffffffffffffff16021790555073b53c1a33016b2dc2ff3653530bff1848a515c8c5600260006101000a81548173ffffffffffffffffffffffffffffffffffffffff021916908373ffffffffffffffffffffffffffffffffffffffff1602179055503480156100ba57600080fd5b50604051611ff5380380611ff5833981810160405260208110156100dd57600080fd5b8101908080519060200190929190505050808073ffffffffffffffffffffffffffffffffffffffff1660808173ffffffffffffffffffffffffffffffffffffffff1660601b815250508073ffffffffffffffffffffffffffffffffffffffff16630261bf8b6040518163ffffffff1660e01b815260040160206040518083038186803b15801561016c57600080fd5b505afa158015610180573d6000803e3d6000fd5b505050506040513d602081101561019657600080fd5b810190808051906020019092919050505073ffffffffffffffffffffffffffffffffffffffff1660a08173ffffffffffffffffffffffffffffffffffffffff1660601b8152505050737a250d5630b4cf539739df2c5dacb4c659f2488d600360006101000a81548173ffffffffffffffffffffffffffffffffffffffff021916908373ffffffffffffffffffffffffffffffffffffffff16021790555073d9e1ce17f2641f24ae83637ab66a2cca9c378b9f600460006101000a81548173ffffffffffffffffffffffffffffffffffffffff021916908373ffffffffffffffffffffffffffffffffffffffff1602179055505060805160601c60a05160601c611d436102b2600039806113a652508061088f5250611d436000f3fe6080604052600436106101185760003560e01c8063920f5c84116100a0578063e4c7051611610064578063e4c70516146106f0578063e9240c2d1461071b578063ed93dc0a1461075c578063f6397d1d14610787578063fef00b35146107b25761011f565b8063920f5c8414610402578063b05dba96146105bd578063b4dcfc77146105d4578063c98166c014610615578063db775227146106405761011f565b80634e317bc0116100e75780634e317bc01461026b5780634e6630b0146102ba578063735de9f7146102e557806373d00224146103265780638a726d011461033d5761011f565b80630542975c14610124578063245ea84a1461016557806329dcb0cf146101905780633eab9ecb146101bb5761011f565b3661011f57005b600080fd5b34801561013057600080fd5b5061013961088d565b604051808273ffffffffffffffffffffffffffffffffffffffff16815260200191505060405180910390f35b34801561017157600080fd5b5061017a6108b1565b6040518082815260200191505060405180910390f35b34801561019c57600080fd5b506101a56108b7565b6040518082815260200191505060405180910390f35b3480156101c757600080fd5b50610214600480360360408110156101de57600080fd5b8101908080359060200190929190803573ffffffffffffffffffffffffffffffffffffffff1690602001909291905050506108bd565b6040518080602001828103825283818151815260200191508051906020019060200280838360005b8381101561025757808201518184015260208101905061023c565b505050509050019250505060405180910390f35b34801561027757600080fd5b506102a46004803603602081101561028e57600080fd5b8101908080359060200190929190505050610a60565b6040518082815260200191505060405180910390f35b3480156102c657600080fd5b506102cf610a81565b6040518082815260200191505060405180910390f35b3480156102f157600080fd5b506102fa610a87565b604051808273ffffffffffffffffffffffffffffffffffffffff16815260200191505060405180910390f35b34801561033257600080fd5b5061033b610aad565b005b34801561034957600080fd5b506104006004803603602081101561036057600080fd5b810190808035906020019064010000000081111561037d57600080fd5b82018360208201111561038f57600080fd5b803590602001918460208302840111640100000000831117156103b157600080fd5b919080806020026020016040519081016040528093929190818152602001838360200280828437600081840152601f19601f820116905080830192505050505050509192919290505050610f89565b005b34801561040e57600080fd5b506105a5600480360360a081101561042557600080fd5b810190808035906020019064010000000081111561044257600080fd5b82018360208201111561045457600080fd5b8035906020019184602083028401116401000000008311171561047657600080fd5b90919293919293908035906020019064010000000081111561049757600080fd5b8201836020820111156104a957600080fd5b803590602001918460208302840111640100000000831117156104cb57600080fd5b9091929391929390803590602001906401000000008111156104ec57600080fd5b8201836020820111156104fe57600080fd5b8035906020019184602083028401116401000000008311171561052057600080fd5b9091929391929390803573ffffffffffffffffffffffffffffffffffffffff1690602001909291908035906020019064010000000081111561056157600080fd5b82018360208201111561057357600080fd5b8035906020019184600183028401116401000000008311171561059557600080fd5b9091929391929390505050610fa3565b60405180821515815260200191505060405180910390f35b3480156105c957600080fd5b506105d26111ac565b005b3480156105e057600080fd5b506105e96113a4565b604051808273ffffffffffffffffffffffffffffffffffffffff16815260200191505060405180910390f35b34801561062157600080fd5b5061062a6113c8565b6040518082815260200191505060405180910390f35b34801561064c57600080fd5b506106996004803603604081101561066357600080fd5b8101908080359060200190929190803573ffffffffffffffffffffffffffffffffffffffff1690602001909291905050506113ce565b6040518080602001828103825283818151815260200191508051906020019060200280838360005b838110156106dc5780820151818401526020810190506106c1565b505050509050019250505060405180910390f35b3480156106fc57600080fd5b50610705611571565b6040518082815260200191505060405180910390f35b34801561072757600080fd5b50610730611577565b604051808273ffffffffffffffffffffffffffffffffffffffff16815260200191505060405180910390f35b34801561076857600080fd5b5061077161159d565b6040518082815260200191505060405180910390f35b34801561079357600080fd5b5061079c6115a3565b6040518082815260200191505060405180910390f35b3480156107be57600080fd5b5061088b600480360360408110156107d557600080fd5b81019080803590602001906401000000008111156107f257600080fd5b82018360208201111561080457600080fd5b8035906020019184602083028401116401000000008311171561082657600080fd5b90919293919293908035906020019064010000000081111561084757600080fd5b82018360208201111561085957600080fd5b8035906020019184602083028401116401000000008311171561087b57600080fd5b90919293919293905050506115a9565b005b7f000000000000000000000000000000000000000000000000000000000000000081565b600c5481565b60085481565b6060600360009054906101000a900473ffffffffffffffffffffffffffffffffffffffff1673ffffffffffffffffffffffffffffffffffffffff1663d06ca61f84610907856118be565b6040518363ffffffff1660e01b81526004018083815260200180602001828103825283818151815260200191508051906020019060200280838360005b8381101561095f578082015181840152602081019050610944565b50505050905001935050505060006040518083038186803b15801561098357600080fd5b505afa158015610997573d6000803e3d6000fd5b505050506040513d6000823e3d601f19601f8201168201806040525060208110156109c157600080fd5b81019080805160405193929190846401000000008211156109e157600080fd5b838201915060208201858111156109f757600080fd5b8251866020820283011164010000000082111715610a1457600080fd5b8083526020830192505050908051906020019060200280838360005b83811015610a4b578082015181840152602081019050610a30565b50505050905001604052505050905092915050565b60068181548110610a6d57fe5b906000526020600020016000915090505481565b60095481565b600360009054906101000a900473ffffffffffffffffffffffffffffffffffffffff1681565b6000600160009054906101000a900473ffffffffffffffffffffffffffffffffffffffff16905061012c42016008819055506000610b256006600081548110610af257fe5b9060005260206000200154600160009054906101000a900473ffffffffffffffffffffffffffffffffffffffff166108bd565b600181518110610b3157fe5b60200260200101519050600360009054906101000a900473ffffffffffffffffffffffffffffffffffffffff1673ffffffffffffffffffffffffffffffffffffffff166318cbafe56006600081548110610b8757fe5b906000526020600020015483610bbe600160009054906101000a900473ffffffffffffffffffffffffffffffffffffffff166118be565b306008546040518663ffffffff1660e01b815260040180868152602001858152602001806020018473ffffffffffffffffffffffffffffffffffffffff168152602001838152602001828103825285818151815260200191508051906020019060200280838360005b83811015610c42578082015181840152602081019050610c27565b505050509050019650505050505050600060405180830381600087803b158015610c6b57600080fd5b505af1158015610c7f573d6000803e3d6000fd5b505050506040513d6000823e3d601f19601f820116820180604052506020811015610ca957600080fd5b8101908080516040519392919084640100000000821115610cc957600080fd5b83820191506020820185811115610cdf57600080fd5b8251866020820283011164010000000082111715610cfc57600080fd5b8083526020830192505050908051906020019060200280838360005b83811015610d33578082015181840152602081019050610d18565b505050509050016040525050505060024781610d4b57fe5b04600981905550610d80600954600160009054906101000a900473ffffffffffffffffffffffffffffffffffffffff166113ce565b600181518110610d8c57fe5b6020026020010151600c81905550600460009054906101000a900473ffffffffffffffffffffffffffffffffffffffff1673ffffffffffffffffffffffffffffffffffffffff16637ff36ab5600954600c54610e09600160009054906101000a900473ffffffffffffffffffffffffffffffffffffffff16611a46565b306008546040518663ffffffff1660e01b815260040180858152602001806020018473ffffffffffffffffffffffffffffffffffffffff168152602001838152602001828103825285818151815260200191508051906020019060200280838360005b83811015610e87578082015181840152602081019050610e6c565b50505050905001955050505050506000604051808303818588803b158015610eae57600080fd5b505af1158015610ec2573d6000803e3d6000fd5b50505050506040513d6000823e3d601f19601f820116820180604052506020811015610eed57600080fd5b8101908080516040519392919084640100000000821115610f0d57600080fd5b83820191506020820185811115610f2357600080fd5b8251866020820283011164010000000082111715610f4057600080fd5b8083526020830192505050908051906020019060200280838360005b83811015610f77578082015181840152602081019050610f5c565b50505050905001604052505050505050565b8060069080519060200190610f9f929190611c56565b5050565b6000610fad610aad565b6000600260009054906101000a900473ffffffffffffffffffffffffffffffffffffffff1673ffffffffffffffffffffffffffffffffffffffff16630261bf8b6040518163ffffffff1660e01b815260040160206040518083038186803b15801561101757600080fd5b505afa15801561102b573d6000803e3d6000fd5b505050506040513d602081101561104157600080fd5b8101908080519060200190929190505050905060005b8b8b905081101561119957600061109b89898481811061107357fe5b905060200201358c8c8581811061108657fe5b90506020020135611bce90919063ffffffff16565b90508a8a838181106110a957fe5b905060200201356005819055508c8c838181106110c257fe5b9050602002013573ffffffffffffffffffffffffffffffffffffffff1673ffffffffffffffffffffffffffffffffffffffff1663095ea7b384836040518363ffffffff1660e01b8152600401808373ffffffffffffffffffffffffffffffffffffffff16815260200182815260200192505050602060405180830381600087803b15801561114f57600080fd5b505af1158015611163573d6000803e3d6000fd5b505050506040513d602081101561117957600080fd5b810190808051906020019092919050505050508080600101915050611057565b5060019150509998505050505050505050565b6000600160009054906101000a900473ffffffffffffffffffffffffffffffffffffffff1690508073ffffffffffffffffffffffffffffffffffffffff1663095ea7b3600360009054906101000a900473ffffffffffffffffffffffffffffffffffffffff16600660008154811061122057fe5b90600052602060002001546040518363ffffffff1660e01b8152600401808373ffffffffffffffffffffffffffffffffffffffff16815260200182815260200192505050602060405180830381600087803b15801561127e57600080fd5b505af1158015611292573d6000803e3d6000fd5b505050506040513d60208110156112a857600080fd5b8101908080519060200190929190505050508073ffffffffffffffffffffffffffffffffffffffff1663095ea7b3600460009054906101000a900473ffffffffffffffffffffffffffffffffffffffff16600660008154811061130757fe5b90600052602060002001546040518363ffffffff1660e01b8152600401808373ffffffffffffffffffffffffffffffffffffffff16815260200182815260200192505050602060405180830381600087803b15801561136557600080fd5b505af1158015611379573d6000803e3d6000fd5b505050506040513d602081101561138f57600080fd5b81019080805190602001909291905050505050565b7f000000000000000000000000000000000000000000000000000000000000000081565b600b5481565b6060600460009054906101000a900473ffffffffffffffffffffffffffffffffffffffff1673ffffffffffffffffffffffffffffffffffffffff1663d06ca61f8461141885611a46565b6040518363ffffffff1660e01b81526004018083815260200180602001828103825283818151815260200191508051906020019060200280838360005b83811015611470578082015181840152602081019050611455565b50505050905001935050505060006040518083038186803b15801561149457600080fd5b505afa1580156114a8573d6000803e3d6000fd5b505050506040513d6000823e3d601f19601f8201168201806040525060208110156114d257600080fd5b81019080805160405193929190846401000000008211156114f257600080fd5b8382019150602082018581111561150857600080fd5b825186602082028301116401000000008211171561152557600080fd5b8083526020830192505050908051906020019060200280838360005b8381101561155c578082015181840152602081019050611541565b50505050905001604052505050905092915050565b600a5481565b600460009054906101000a900473ffffffffffffffffffffffffffffffffffffffff1681565b60055481565b60075481565b8181600691906115ba929190611ca3565b5060003090506060600167ffffffffffffffff811180156115da57600080fd5b506040519080825280602002602001820160405280156116095781602001602082028036833780820191505090505b50905060008160008151811061161b57fe5b602002602001018181525050600030905060606040518060200160405280600081525090506000600260009054906101000a900473ffffffffffffffffffffffffffffffffffffffff1673ffffffffffffffffffffffffffffffffffffffff16630261bf8b6040518163ffffffff1660e01b815260040160206040518083038186803b1580156116aa57600080fd5b505afa1580156116be573d6000803e3d6000fd5b505050506040513d60208110156116d457600080fd5b810190808051906020019092919050505090508073ffffffffffffffffffffffffffffffffffffffff1663ab9c4b5d308b8b8b8b8a8a8a60006040518a63ffffffff1660e01b8152600401808a73ffffffffffffffffffffffffffffffffffffffff1681526020018060200180602001806020018773ffffffffffffffffffffffffffffffffffffffff1681526020018060200186815260200185810385528d8d82818152602001925060200280828437600081840152601f19601f82011690508083019250505085810384528b8b82818152602001925060200280828437600081840152601f19601f820116905080830192505050858103835289818151815260200191508051906020019060200280838360005b838110156118055780820151818401526020810190506117ea565b50505050905001858103825287818151815260200191508051906020019080838360005b83811015611844578082015181840152602081019050611829565b50505050905090810190601f1680156118715780820380516001836020036101000a031916815260200191505b509d5050505050505050505050505050600060405180830381600087803b15801561189b57600080fd5b505af11580156118af573d6000803e3d6000fd5b50505050505050505050505050565b606080600267ffffffffffffffff811180156118d957600080fd5b506040519080825280602002602001820160405280156119085781602001602082028036833780820191505090505b509050828160008151811061191957fe5b602002602001019073ffffffffffffffffffffffffffffffffffffffff16908173ffffffffffffffffffffffffffffffffffffffff1681525050600360009054906101000a900473ffffffffffffffffffffffffffffffffffffffff1673ffffffffffffffffffffffffffffffffffffffff1663ad5c46486040518163ffffffff1660e01b815260040160206040518083038186803b1580156119bb57600080fd5b505afa1580156119cf573d6000803e3d6000fd5b505050506040513d60208110156119e557600080fd5b810190808051906020019092919050505081600181518110611a0357fe5b602002602001019073ffffffffffffffffffffffffffffffffffffffff16908173ffffffffffffffffffffffffffffffffffffffff168152505080915050919050565b606080600267ffffffffffffffff81118015611a6157600080fd5b50604051908082528060200260200182016040528015611a905781602001602082028036833780820191505090505b509050600460009054906101000a900473ffffffffffffffffffffffffffffffffffffffff1673ffffffffffffffffffffffffffffffffffffffff1663ad5c46486040518163ffffffff1660e01b815260040160206040518083038186803b158015611afb57600080fd5b505afa158015611b0f573d6000803e3d6000fd5b505050506040513d6020811015611b2557600080fd5b810190808051906020019092919050505081600081518110611b4357fe5b602002602001019073ffffffffffffffffffffffffffffffffffffffff16908173ffffffffffffffffffffffffffffffffffffffff16815250508281600181518110611b8b57fe5b602002602001019073ffffffffffffffffffffffffffffffffffffffff16908173ffffffffffffffffffffffffffffffffffffffff168152505080915050919050565b600080828401905083811015611c4c576040517f08c379a000000000000000000000000000000000000000000000000000000000815260040180806020018281038252601b8152602001807f536166654d6174683a206164646974696f6e206f766572666c6f77000000000081525060200191505060405180910390fd5b8091505092915050565b828054828255906000526020600020908101928215611c92579160200282015b82811115611c91578251825591602001919060010190611c76565b5b509050611c9f9190611cf0565b5090565b828054828255906000526020600020908101928215611cdf579160200282015b82811115611cde578235825591602001919060010190611cc3565b5b509050611cec9190611cf0565b5090565b5b80821115611d09576000816000905550600101611cf1565b509056fea264697066735822122074a22b08f0fdc9252a188d9404cd98b5124d0aa2786c93ab40bf7318b673665f64736f6c634300060c0033",
  "immutableReferences": {
    "1055": [
      {
        "length": 32,
        "start": 2191
      }
    ],
    "1058": [
      {
        "length": 32,
        "start": 5030
      }
    ]
  },
  "source": "pragma solidity 0.6.12;\r\nimport '@openzeppelin/contracts/token/ERC20/IERC20.sol';\r\nimport { FlashLoanReceiverBase } from \"./flashLoanContracts/FlashLoanReceiverBase.sol\";\r\nimport \"./flashLoanContracts/ILendingPool.sol\";\r\nimport \"./flashLoanContracts/ILendingPoolAddressesProvider.sol\";\r\nimport \"./UniswapContracts/IUniswapV2Router02.sol\";\r\nimport \"./UniswapContracts/IUniswapV2Factory.sol\";\r\n\r\n\r\ncontract Flash is FlashLoanReceiverBase {\r\n    address owner;\r\n    IERC20 daiAddress = IERC20(0x6B175474E89094C44Da98b954EedeAC495271d0F);\r\n    ILendingPoolAddressesProvider provider = ILendingPoolAddressesProvider(0xB53C1a33016B2DC2fF3653530bfF1848a515c8c5);\r\n    IUniswapV2Router02 public uniswapRouter;\r\n    IUniswapV2Router02 public sushiswapRouter;\r\n    uint public flashLoanedAmount;\r\n    \r\n    uint256[] public amountToTrade;\r\n    uint public tokensOut;\r\n    uint public deadline;\r\n    uint public ethBalance;\r\n    uint public daiAmount;\r\n    uint public ethAmount;\r\n    uint public estimatedTokens;\r\n\r\n    \r\n\r\n    constructor(ILendingPoolAddressesProvider _aaveProvider) FlashLoanReceiverBase (_aaveProvider) public {\r\n       \r\n       uniswapRouter = IUniswapV2Router02(0x7a250d5630B4cF539739dF2C5dAcb4c659F2488D);\r\n       sushiswapRouter = IUniswapV2Router02(0xd9e1cE17f2641f24aE83637ab66a2cca9C378B9F);\r\n    }\r\n\r\n    function executeOperation(address[] calldata assets, uint256[] calldata amounts, uint256[] calldata premiums, address initiator, bytes calldata params) external override returns(bool){\r\n        //require(_amounts <= getBalanceInternal(address(this), _reserve), \"Invalid balance, was the flashLoan successful?\");\r\n        //flash logic\r\n        \r\n       swapTokens();\r\n            \r\n\r\n        \r\n\r\n        // Approve the LendingPool contract allowance to *pull* the owed amount\r\n        ILendingPool lendingPool = ILendingPool(provider.getLendingPool());\r\n        for (uint i=0; i < assets.length; i++) {\r\n            uint amountOwing = amounts[i].add(premiums[i]);\r\n            flashLoanedAmount = amounts[i];\r\n            IERC20(assets[i]).approve(address(lendingPool), amountOwing);\r\n        }\r\n        return true;\r\n\r\n    }\r\n\r\n    function startFlashLoan(address[] calldata assets, uint256[] calldata amounts) public {\r\n        \r\n        amountToTrade = amounts;\r\n        address receiverAddress = address(this);\r\n\r\n        uint256[] memory modes = new uint256[](1);\r\n        modes[0] = 0;\r\n\r\n        address onBehalfOf = address(this);\r\n\r\n        bytes memory params = \"\";\r\n        \r\n       \r\n\r\n        ILendingPool lendingPool = ILendingPool(provider.getLendingPool());\r\n        lendingPool.flashLoan(address(this), assets, amounts, modes, onBehalfOf, params, 0);\r\n    }\r\n\r\n\r\n    function swapTokens() public {\r\n        IERC20 dai = IERC20(daiAddress);\r\n        deadline = block.timestamp + 300;\r\n\r\n        uint256 estimatedETH = getEstimatedETHForToken(amountToTrade[0], address(daiAddress))[1];\r\n        \r\n\r\n        uniswapRouter.swapExactTokensForETH (amountToTrade[0], estimatedETH, getAssetPath(address(daiAddress)),address(this), deadline);\r\n\r\n        ethBalance = address(this).balance/2;\r\n\r\n        estimatedTokens = getEstimatedTokensForETH(ethBalance, address(daiAddress))[1];\r\n\r\n        sushiswapRouter.swapExactETHForTokens{value: ethBalance}(estimatedTokens, getETHPath(address(daiAddress)),address(this), deadline);\r\n\r\n        \r\n    }\r\n\r\n    function setAmountsToSwap(uint256[] memory _amounts) public {\r\n        amountToTrade = _amounts;\r\n    }\r\n\r\n    function approvals() public {\r\n        IERC20 dai = IERC20(daiAddress);\r\n        dai.approve(address(uniswapRouter), amountToTrade[0]);\r\n        dai.approve(address(sushiswapRouter), amountToTrade[0]);\r\n    }\r\n\r\n    function getEstimatedETHForToken(uint _tokenAmount, address ERC20Token) public view returns (uint[] memory) {\r\n        return uniswapRouter.getAmountsOut(_tokenAmount, getAssetPath(ERC20Token));\r\n    }\r\n\r\n    function getEstimatedTokensForETH(uint _tokenAmount, address ERC20Token) public view returns (uint[] memory) {\r\n        return sushiswapRouter.getAmountsOut(_tokenAmount, getETHPath(ERC20Token));\r\n    }\r\n\r\n\r\n    function getAssetPath(address Token) private view returns (address[] memory){\r\n        address[] memory path = new address[](2);\r\n        path[0] = Token;\r\n        path[1] = uniswapRouter.WETH();\r\n\r\n        return path;\r\n    }\r\n\r\n    function getAssetPathSushi(address Token) private view returns (address[] memory){\r\n        address[] memory path = new address[](2);\r\n        path[0] = Token;\r\n        path[1] = sushiswapRouter.WETH();\r\n\r\n        return path;\r\n    }\r\n    \r\n    function getETHPath(address Token) private view returns (address[] memory) {\r\n        address[] memory path = new address[](2);\r\n        path[0] = sushiswapRouter.WETH();\r\n        path[1] = Token;\r\n\r\n        return path;\r\n    }\r\n    \r\n    receive() payable external{}\r\n}\r\n\r\n\r\n",
  "sourcePath": "D:/Users/victo/Desktop/Crypto Programming/DeFi/AaveFlash/contracts/Flash.sol",
  "compiler": {
    "name": "solc",
    "version": "0.6.12+commit.27d51765.Emscripten.clang"
  },
  "schemaVersion": "3.3.3",
  "updatedAt": "2021-01-12T02:18:35.881Z",
  "networkType": "ethereum",
  "devdoc": {
    "kind": "dev",
    "methods": {},
    "version": 1
  },
  "userdoc": {
    "kind": "user",
    "methods": {},
    "version": 1
  }
}